:100000000C942A000C9447000C9447000C94470071
:100010000C9447000C9447000C9447000C94470044
:100020000C9447000C9447000C94AC160C944700B9
:100030000C9447000C94EA0E0C9447000C94470073
:100040000C9447000C9447000C9447000C94470014
:100050000C94470011241FBECFE5D8E0DEBFCDBF12
:1000600012E0A0E6B0E0EAE1F6E302C005900D92EE
:10007000A032B107D9F713E0A0E2B2E001C01D92AF
:10008000AA31B107E1F70E9431140C940B1B0C94B8
:100090000000EF92FF920F931F937B018C0120E0F1
:1000A00030E040E05FE40E94F50388238CF0C80153
:1000B000B70120E030E040E05FE40E94C1010E940F
:1000C00055049B01AC01205030404040504806C0D0
:1000D000C801B7010E9455049B01AC01B901CA01D6
:1000E0001F910F91FF90EF900895A0E0B0E0EBE733
:1000F000F0E00C94B718DC012B01FA019C919230CE
:1001000008F439C1EB018881823008F433C194309E
:1001100069F4843009F02FC111969C91119789815F
:10012000981709F428C1A8E1B1E025C1843009F489
:1001300021C18230A9F4923009F01DC19A01AD01AC
:1001400088E0EA010990AE01E90109929E0181501F
:10015000C1F7E201898111969C918923818308C1AD
:10016000923009F407C112962D903C901397EB0141
:100170008A819B811496AD90BD90CD90DC901797AD
:10018000EC80FD800E811F819101281B390BB90184
:1001900037FF04C066277727621B730B6032710537
:1001A0000CF061C0121613066CF537014801062EDB
:1001B00004C096948794779467940A94D2F721E0C8
:1001C00030E040E050E004C0220F331F441F551FB1
:1001D0006A95D2F721503040404050402E213F21B7
:1001E00040235123211531054105510521F021E01E
:1001F00030E040E050E079018A01E628F72808293C
:1002000019293CC0232BD1F1260E371E350146019A
:10021000062E04C096948794779467940A94D2F734
:1002200021E030E040E050E004C0220F331F441FC3
:10023000551F6A95D2F721503040404050402A2146
:100240003B214C215D21211531054105510521F04E
:1002500021E030E040E050E059016A01A628B728CB
:10026000C828D9280BC0821593052CF01C01AA249C
:10027000BB24650103C0EE24FF24870111969C91E5
:10028000D20111968C91981709F445C0992339F041
:10029000A80197012A193B094C095D0906C0A6016E
:1002A00095012E193F09400B510B57FD08C01182D3
:1002B0003382228224833583468357831DC081E0A5
:1002C00081833382228288279927DC01821B930B4A
:1002D000A40BB50B84839583A683B7830DC0220F2F
:1002E000331F441F551F24833583468357838281E0
:1002F000938101979383828324813581468157813D
:10030000DA01C9010197A109B1098F5F9F4FAF4F72
:10031000BF4328F30BC0918333822282EA0CFB1C7B
:100320000C1D1D1DE482F5820683178383E0808304
:10033000248135814681578157FF1AC0C901AA27F8
:1003400097FDA095BA2F81709070A070B0705695EF
:10035000479537952795822B932BA42BB52B848318
:100360009583A683B7838281938101969383828349
:10037000DF0101C0D201CD01CDB7DEB7E2E10C94BF
:10038000D318A0E2B0E0E7ECF1E00C94C318698365
:100390007A838B839C832D833E834F835887E9E048
:1003A000EE2EF12CEC0EFD1ECE010196B7010E943F
:1003B00046068E010F5E1F4FCE010596B8010E94C2
:1003C00046068A8991E089278A8BC701B801AE0168
:1003D000475E5F4F0E9475000E947105A096E6E09F
:1003E0000C94DF18A0E2B0E0E8EFF1E00C94C31841
:1003F00069837A838B839C832D833E834F835887C5
:10040000F9E0EF2EF12CEC0EFD1ECE010196B701A6
:100410000E9446068E010F5E1F4FCE010596B80161
:100420000E944606C701B801AE01475E5F4F0E94B9
:1004300075000E947105A096E6E00C94DF18A0E21A
:10044000B0E0E5E2F2E00C94B71869837A838B831D
:100450009C832D833E834F835887CE010196BE0136
:10046000675F7F4F0E944606CE010596BE016F5E14
:100470007F4F0E9446069985923088F089898230A4
:10048000C8F0943019F4823051F404C0843029F457
:10049000923081F488E191E0C6C0923049F420E0C6
:1004A0009A858A89981321E02A87CE010996BBC0D4
:1004B000823049F420E09A858A89981321E02A8BBA
:1004C000CE014196B0C02D843E844F8458886D88FB
:1004D0007E888F88988CEE24FF248701AA24BB2471
:1004E000650140E050E060E070E0E0E0F0E0C10174
:1004F00081709070892BE9F0E60CF71C081D191D1E
:100500009A01AB012A0D3B1D4C1D5D1D80E090E062
:10051000A0E0B0E0E614F7040805190520F481E036
:1005200090E0A0E0B0E0BA01A901480F591F6A1F8E
:100530007B1FAA0CBB1CCC1CDD1C97FE08C081E0F5
:1005400090E0A0E0B0E0A82AB92ACA2ADB2A3196B6
:10055000E032F10549F0660C771C881C991C569412
:10056000479437942794C3CFFA85EA892B893C892D
:100570008B859C85280F391F2E5F3F4F17C0CA01FE
:1005800081709070892B61F016950795F794E79428
:1005900080E090E0A0E0B0E8E82AF92A0A2B1B2BC3
:1005A00076956795579547952F5F3F4F77FDE7CF36
:1005B0000CC0440F551F661F771F17FD4160EE0CDE
:1005C000FF1C001F111F21503040403090E05907A0
:1005D00090E0690790E4790760F32B8F3C8FDB0193
:1005E000CA018F779070A070B07080349105A1051A
:1005F000B10561F447FD0AC0E114F10401051105DC
:1006000029F0405C5F4F6F4F7F4F40781A8EFE1786
:1006100011F081E08A8F4D8F5E8F6F8F78A383E01A
:10062000898FCE0149960E947105A096E2E10C9453
:10063000D318A8E1B0E0EFE1F3E00C94BF186983B0
:100640007A838B839C832D833E834F835887B9E0C5
:10065000EB2EF12CEC0EFD1ECE010196B7010E948F
:1006600046068E010F5E1F4FCE010596B8010E940F
:1006700046062985223008F47EC03989323010F4CC
:10068000B8017CC08A859A8989278A87243011F02D
:10069000223031F4231709F06EC068E171E06EC0BA
:1006A000343039F41D861E861F86188A1C861B86E8
:1006B00004C0323021F484E08987B7015FC02B8504
:1006C0003C858B899C89281B390B3C872B87ED84C3
:1006D000FE840F851889AD88BE88CF88D88CEA142F
:1006E000FB040C051D0540F4EE0CFF1C001F111F40
:1006F000215030403C872B8720E030E040E050E044
:1007000080E090E0A0E0B0E460E070E0EA14FB0478
:100710000C051D0540F0282B392B4A2B5B2BEA18C2
:10072000FB080C091D09B695A79597958795EE0CC2
:10073000FF1C001F111F6F5F7F4F6F31710531F775
:10074000DA01C9018F779070A070B0708034910584
:10075000A105B10561F427FD0AC0E114F10401050A
:10076000110529F0205C3F4F4F4F5F4F20782D87B8
:100770003E874F87588BBE01675F7F4FCB010E943A
:1007800071056896EAE00C94DB18A8E1B0E0EBECA8
:10079000F3E00C94C31869837A838B839C832D8345
:1007A0003E834F83588789E0E82EF12CEC0EFD1E26
:1007B000CE010196B7010E9446068E010F5E1F4FC3
:1007C000CE010596B8010E9446068985823040F028
:1007D0008989823028F0C701B8010E94BE0601C095
:1007E0008FEF6896E6E00C94DF18A8E1B0E0EBEF3D
:1007F000F3E00C94C31869837A838B839C832D83E5
:100800003E834F83588789E0E82EF12CEC0EFD1EC5
:10081000CE010196B7010E9446068E010F5E1F4F62
:10082000CE010596B8010E9446068985823040F0C7
:100830008989823028F0C701B8010E94BE0601C034
:100840008FEF6896E6E00C94DF18A8E1B0E0EBE2E9
:10085000F4E00C94C31869837A838B839C832D8383
:100860003E834F83588789E0E82EF12CEC0EFD1E65
:10087000CE010196B7010E9446068E010F5E1F4F02
:10088000CE010596B8010E9446068985823040F067
:100890008989823028F0C701B8010E94BE0601C0D4
:1008A00081E06896E6E00C94DF18ACE0B0E0EBE5A0
:1008B000F4E00C94C71869837A838B839C83CE0100
:1008C0000196BE016B5F7F4F0E9446068D8182308C
:1008D00061F1823050F1843021F48E81882351F10E
:1008E0002EC02F81388537FD20C06E812F31310514
:1008F0001CF06623F9F023C08EE190E0821B930B7D
:1009000029853A854B855C8504C056954795379572
:1009100027958A95D2F76623B1F05095409530958A
:1009200021953F4F4F4F5F4F0EC020E030E040E039
:1009300050E009C02FEF3FEF4FEF5FE704C020E02A
:1009400030E040E050E8B901CA012C96E2E00C9496
:10095000E318A8E0B0E0EFEAF4E00C94BF187B01E4
:100960008C01611571058105910519F482E0898377
:1009700060C083E089838EE1C82ED12CDC82CB82DB
:10098000ED82FE820F831887C801B7010E942205FD
:10099000FC013197F7FF3BC0222733272E1B3F0B6B
:1009A00057016801022E04C0D694C794B794A79447
:1009B0000A94D2F740E050E060E070E081E090E01F
:1009C000A0E0B0E004C0880F991FAA1FBB1F2A95A2
:1009D000D2F70197A109B1098E219F21A023B1234C
:1009E0000097A105B10521F041E050E060E070E022
:1009F0004A295B296C297D294D835E836F83788723
:100A00008EE190E08E1B9F0B9C838B8312C03097EE
:100A100081F00E2E04C0EE0CFF1C001F111F0A9463
:100A2000D2F7ED82FE820F831887CE1ADF0ADC82AE
:100A3000CB821A82CE0101960E9471052896EAE0C7
:100A40000C94DB18EF92FF920F931F937B018C01A4
:100A500080E0E81680E0F80681E0080780E01807EB
:100A600088F48FEFE816F1040105110531F028F044
:100A700088E090E0A0E0B0E017C080E090E0A0E067
:100A8000B0E012C080E0E81680E0F80680E00807D9
:100A900081E0180728F088E190E0A0E0B0E004C011
:100AA00080E190E0A0E0B0E020E230E040E050E003
:100AB000281B390B4A0B5B0B04C016950795F7945E
:100AC000E7948A95D2F7F701E05EFE4F8081281BFC
:100AD000310941095109C9011F910F91FF90EF9010
:100AE0000895DF92EF92FF920F931F93FC01E48031
:100AF000F58006811781D1808081823048F480E0C2
:100B000090E0A0E1B0E0E82AF92A0A2B1B2BA5C04F
:100B1000843009F49FC0823021F4EE24FF24870141
:100B200005C0E114F1040105110519F4E0E0F0E05D
:100B300096C0628173819FEF623879070CF05BC0C9
:100B400022E83FEF261B370B2A3131052CF020E03D
:100B500030E040E050E02AC0B801A701022E04C0F6
:100B600076956795579547950A94D2F781E090E07E
:100B7000A0E0B0E004C0880F991FAA1FBB1F2A95F0
:100B8000D2F70197A109B1098E219F21A023B1239A
:100B90000097A105B10521F081E090E0A0E0B0E070
:100BA0009A01AB01282B392B4A2B5B2BDA01C901A7
:100BB0008F779070A070B07080349105A105B10559
:100BC00039F427FF09C0205C3F4F4F4F5F4F04C0EF
:100BD000215C3F4F4F4F5F4FE0E0F0E02030A0E05E
:100BE0003A07A0E04A07A0E45A0710F0E1E0F0E07D
:100BF00079018A0127C06038710564F5FB01E1586D
:100C0000FF4FD801C7018F779070A070B07080340B
:100C10009105A105B10539F4E7FE0DC080E490E02F
:100C2000A0E0B0E004C08FE390E0A0E0B0E0E80E08
:100C3000F91E0A1F1B1F17FF05C016950795F7948D
:100C4000E794319687E016950795F794E7948A958F
:100C5000D1F705C0EE24FF248701EFEFF0E06E2FFF
:100C6000679566276795902F9F77D794DD24D79453
:100C70008E2F8695492F462B582F5D29B701CA0123
:100C80001F910F91FF90EF90DF900895FC01DB0121
:100C9000408151812281622F6F7770E0221F2227CD
:100CA000221F9381892F880F822B282F30E0991FD4
:100CB0009927991F11969C93119721153105A9F534
:100CC000411551056105710511F482E037C082E8D4
:100CD0009FEF13969C938E9312979A01AB0167E056
:100CE000220F331F441F551F6A95D1F783E08C9361
:100CF0000DC0220F331F441F551F12968D919C91DA
:100D00001397019713969C938E931297203080E04F
:100D1000380780E0480780E4580758F314962D936D
:100D20003D934D935C93179708952F3F310579F4C8
:100D3000411551056105710519F484E08C930895FE
:100D400064FF03C081E08C9312C01C9210C02F5727
:100D5000304013963C932E93129783E08C9387E058
:100D6000440F551F661F771F8A95D1F7706414963C
:100D70004D935D936D937C93179708951F93DC01BA
:100D8000FB019C91923008F447C08081823008F4C6
:100D900043C0943051F411961C91843099F58181AF
:100DA000682F70E0611B71093FC0843021F09230E0
:100DB00031F48230B9F18181882389F12DC01196F7
:100DC0001C9111978230F1F081811817D9F4129695
:100DD0002D913C911397828193818217930794F010
:100DE00028173907BCF014968D919D910D90BC91F8
:100DF000A02D2481358146815781281739074A075C
:100E00005B0718F4112341F00AC082179307A40767
:100E1000B50740F4112319F061E070E005C06FEFF1
:100E20007FEF02C060E070E0CB011F910895DF9377
:100E3000CF9300D0CDB7DEB71A821982EBE2F0E093
:100E400082E08083EAE2F0E088E98083E0E4F0E099
:100E500086E88083E9E2F0E087E68083E0E4F0E082
:100E600010820F900F90CF91DF910895DF93CF9371
:100E70000F92CDB7DEB78983EBE2F0E08081882F57
:100E800090E0807290700097B9F3ECE2F0E0898115
:100E900080830F90CF91DF910895DF93CF93CDB7EB
:100EA000DEB7EBE2F0E080818823DCF7ECE2F0E0F3
:100EB0008081CF91DF910895DF93CF9300D000D050
:100EC000CDB7DEB79C838B831A8219820FC029812C
:100ED0003A818B819C81FC01E20FF31F80810E948B
:100EE000360789819A8101969A83898329813A817B
:100EF0008B819C81FC01E20FF31F8081882339F7ED
:100F00000F900F900F900F90CF91DF910895DF9386
:100F1000CF93CDB7DEB766970FB6F894DEBF0FBE9E
:100F2000CDBF9E8B8D8B8D899E899E012F5F3F4FFC
:100F3000B9014AE050E00E945D1ACE0101960E947C
:100F40005C0766960FB6F894DEBF0FBECDBFCF919B
:100F5000DF910895DF93CF93CDB7DEB76C970FB6CF
:100F6000F894DEBF0FBECDBFA7E3B0E0E7E3F0E04B
:100F70008081806F8C93A4E3B0E0E4E3F0E08081B3
:100F8000806C8C93A8E3B0E0E8E3F0E080818F70A0
:100F90008C93A5E3B0E0E5E3F0E080818F738C9360
:100FA00080E090E0A0E0B0E4898F9A8FAB8FBC8F97
:100FB000698D7A8D8B8D9C8D20E030E04AEF54E472
:100FC0000E941F02DC01CB018D8B9E8BAF8BB88FF3
:100FD0006D897E898F89988D20E030E040E85FE35D
:100FE0000E94250488232CF481E090E09C8B8B8B5D
:100FF0003FC06D897E898F89988D20E03FEF4FE754
:1010000057E40E94C50318164CF5698D7A8D8B8DB7
:101010009C8D20E030E040E251E40E941F02DC01A0
:10102000CB01BC01CD010E944900DC01CB019C8BAE
:101030008B8B0FC088EC90E09A8B898B89899A8979
:101040000197F1F79A8B898B8B899C8901979C8BEF
:101050008B8B8B899C89009769F714C06D897E8979
:101060008F89988D0E944900DC01CB019C8B8B8B72
:101070008B899C89988B8F878F8598890197F1F749
:10108000988B8F8783E30E94CF0882E30E94CF086A
:1010900088E20E94CF088EE00E94CF0881E00E9483
:1010A000CF0880E090E0A0E0B0E48B879C87AD871C
:1010B000BE876B857C858D859E8520E030E04AEF7C
:1010C00054E40E941F02DC01CB018F839887A9871B
:1010D000BA876F81788589859A8520E030E040E87D
:1010E0005FE30E94250488232CF481E090E09E8336
:1010F0008D833FC06F81788589859A8520E03FEF99
:101100004FE757E40E94C50318164CF56B857C85A4
:101110008D859E8520E030E040E251E40E941F0270
:10112000DC01CB01BC01CD010E944900DC01CB01F7
:101130009E838D830FC088EC90E09C838B838B8192
:101140009C810197F1F79C838B838D819E81019710
:101150009E838D838D819E81009769F714C06F8176
:10116000788589859A850E944900DC01CB019E83A0
:101170008D838D819E819A83898389819A8101974C
:10118000F1F79A83898386E00E94CF086C960FB6A8
:10119000F894DEBF0FBECDBFCF91DF910895DF93EE
:1011A000CF93CDB7DEB7C354D0400FB6F894DEBFAF
:1011B0000FBECDBFFE01ED5BFF4F8083A5E3B0E026
:1011C000E5E3F0E080818F7B8C93A8E3B0E0E8E377
:1011D000F0E08081982F9F70FE01ED5BFF4F8081D2
:1011E000807F892B8C93A5E3B0E0E5E3F0E080817C
:1011F00080688C93FE01FF9680E090E0A0E0B0E470
:1012000080839183A283B383FE01FF966081718105
:101210008281938120E030E04AEF54E40E941F0273
:10122000DC01CB018BAF9CAFADAFBEAF6BAD7CAD86
:101230008DAD9EAD20E030E040E85FE30E942504E4
:1012400088232CF481E090E09AAF89AF41C06BAD68
:101250007CAD8DAD9EAD20E03FEF4FE757E40E949F
:10126000C50318165CF5FE01FF96608171818281CD
:10127000938120E030E040E251E40E941F02DC0153
:10128000CB01BC01CD010E944900DC01CB019AAF2A
:1012900089AF0FC088EC90E098AF8FAB8FA998AD65
:1012A0000197F1F798AF8FAB89AD9AAD01979AAFDF
:1012B00089AF89AD9AAD009769F714C06BAD7CAD6D
:1012C0008DAD9EAD0E944900DC01CB019AAF89AF84
:1012D00089AD9AAD9EAB8DAB8DA99EA90197F1F713
:1012E0009EAB8DABA5E3B0E0E5E3F0E080818F77C6
:1012F0008C9380E090E0A0E8BFE389AB9AABABAB06
:10130000BCAB69A97AA98BA99CA92BEA3AEA4AE263
:1013100050E40E941F02DC01CB018DA79EA7AFA75E
:10132000B8AB6DA57EA58FA598A920E030E040E878
:101330005FE30E94250488231CF481E08CA791C000
:101340006DA57EA58FA598A920E030E04FE753E476
:101350000E94C50318160CF07BC069A97AA98BA955
:101360009CA920E030E04AE754E40E941903DC0124
:10137000CB0188A799A7AAA7BBA768A579A58AA525
:101380009BA520E030E04AEF54E40E941F02DC01FC
:10139000CB018CA39DA3AEA3BFA36CA17DA18EA105
:1013A0009FA120E030E040E85FE30E94250488230D
:1013B0002CF481E090E09BA38AA33FC06CA17DA1A7
:1013C0008EA19FA120E03FEF4FE757E40E94C503A5
:1013D00018164CF568A579A58AA59BA520E030E0F4
:1013E00040E251E40E941F02DC01CB01BC01CD01AF
:1013F0000E944900DC01CB019BA38AA30FC088ECAB
:1014000090E099A388A388A199A10197F1F799A3E6
:1014100088A38AA19BA101979BA38AA38AA19BA1D0
:10142000009769F724C06CA17DA18EA19FA10E94A5
:101430004900DC01CB019BA38AA38AA19BA19F8FBA
:101440008E8F8E8D9F8D0197F1F79F8F8E8F0FC09E
:101450006DA57EA58FA598A90E944900DC01CB014E
:101460008CA78CA58D8F8D8D8A95F1F78D8FA8E334
:10147000B0E0E8E3F0E08081282F2F70FE01ED5B03
:10148000FF4F8081882F90E082959295907F9827DA
:10149000807F9827822B8C93A5E3B0E0E5E3F0E012
:1014A000808180688C9380E090E0A0E0B0E4898F38
:1014B0009A8FAB8FBC8F698D7A8D8B8D9C8D20E040
:1014C00030E04AEF54E40E941F02DC01CB018D8B17
:1014D0009E8BAF8BB88F6D897E898F89988D20E028
:1014E00030E040E85FE30E94250488232CF481E08B
:1014F00090E09C8B8B8B3FC06D897E898F89988D06
:1015000020E03FEF4FE757E40E94C50318164CF563
:10151000698D7A8D8B8D9C8D20E030E040E251E426
:101520000E941F02DC01CB01BC01CD010E944900D9
:10153000DC01CB019C8B8B8B0FC088EC90E09A8BED
:10154000898B89899A890197F1F79A8B898B8B8985
:101550009C8901979C8B8B8B8B899C89009769F761
:1015600014C06D897E898F89988D0E944900DC01A5
:10157000CB019C8B8B8B8B899C89988B8F878F85DC
:1015800098890197F1F7988B8F87A5E3B0E0E5E3A1
:10159000F0E080818F778C9380E090E0A0E0B0E471
:1015A0008B879C87AD87BE876B857C858D859E8567
:1015B00020E030E04AEF54E40E941F02DC01CB013E
:1015C0008F839887A987BA876F81788589859A855F
:1015D00020E030E040E85FE30E94250488232CF4FB
:1015E00081E090E09E838D833FC06F8178858985FF
:1015F0009A8520E03FEF4FE757E40E94C503181695
:101600004CF56B857C858D859E8520E030E040E241
:1016100051E40E941F02DC01CB01BC01CD010E94FC
:101620004900DC01CB019E838D830FC088EC90E0E4
:101630009C838B838B819C810197F1F79C838B83A7
:101640008D819E8101979E838D838D819E810097E0
:1016500069F714C06F81788589859A850E94490051
:10166000DC01CB019E838D838D819E819A8389834A
:1016700089819A810197F1F79A838983CD5BDF4F46
:101680000FB6F894DEBF0FBECDBFCF91DF910895A6
:10169000DF93CF93CDB7DEB7C354D0400FB6F894E5
:1016A000DEBF0FBECDBFFE01ED5BFF4F8083A5E324
:1016B000B0E0E5E3F0E0808180648C93A8E3B0E0E3
:1016C000E8E3F0E08081982F9F70FE01ED5BFF4F13
:1016D0008081807F892B8C93A5E3B0E0E5E3F0E087
:1016E000808180688C93FE01FF9680E090E0A0E00E
:1016F000B0E480839183A283B383FE01FF9660816F
:1017000071818281938120E030E04AEF54E40E94AD
:101710001F02DC01CB018BAF9CAFADAFBEAF6BAD99
:101720007CAD8DAD9EAD20E030E040E85FE30E94EF
:10173000250488232CF481E090E09AAF89AF41C062
:101740006BAD7CAD8DAD9EAD20E03FEF4FE757E434
:101750000E94C50318165CF5FE01FF966081718139
:101760008281938120E030E040E251E40E941F0238
:10177000DC01CB01BC01CD010E944900DC01CB01A1
:101780009AAF89AF0FC088EC90E098AF8FAB8FA96C
:1017900098AD0197F1F798AF8FAB89AD9AAD0197EE
:1017A0009AAF89AF89AD9AAD009769F714C06BAD58
:1017B0007CAD8DAD9EAD0E944900DC01CB019AAF9E
:1017C00089AF89AD9AAD9EAB8DAB8DA99EA90197CE
:1017D000F1F79EAB8DABA5E3B0E0E5E3F0E08081EF
:1017E0008F778C9380E090E0A0E8BFE389AB9AAB61
:1017F000ABABBCAB69A97AA98BA99CA92BEA3AEA45
:101800004AE250E40E941F02DC01CB018DA79EA793
:10181000AFA7B8AB6DA57EA58FA598A920E030E055
:1018200040E85FE30E94250488231CF481E08CA734
:1018300091C06DA57EA58FA598A920E030E04FE767
:1018400053E40E94C50318160CF07BC069A97AA95D
:101850008BA99CA920E030E04AE754E40E941903D8
:10186000DC01CB0188A799A7AAA7BBA768A579A582
:101870008AA59BA520E030E04AEF54E40E941F02B5
:10188000DC01CB018CA39DA3AEA3BFA36CA17DA162
:101890008EA19FA120E030E040E85FE30E94250494
:1018A00088232CF481E090E09BA38AA33FC06CA125
:1018B0007DA18EA19FA120E03FEF4FE757E40E945A
:1018C000C50318164CF568A579A58AA59BA520E047
:1018D00030E040E251E40E941F02DC01CB01BC0178
:1018E000CD010E944900DC01CB019BA38AA30FC05C
:1018F00088EC90E099A388A388A199A10197F1F7BA
:1019000099A388A38AA19BA101979BA38AA38AA1DB
:101910009BA1009769F724C06CA17DA18EA19FA116
:101920000E944900DC01CB019BA38AA38AA19BA151
:101930009F8F8E8F8E8D9F8D0197F1F79F8F8E8F4A
:101940000FC06DA57EA58FA598A90E944900DC0156
:10195000CB018CA78CA58D8F8D8D8A95F1F78D8FFE
:10196000A8E3B0E0E8E3F0E08081282F2F70FE01CB
:10197000ED5BFF4F8081882F90E082959295907F5C
:101980009827807F9827822B8C93A5E3B0E0E5E32E
:10199000F0E0808180688C9380E090E0A0E0B0E48B
:1019A000898F9A8FAB8FBC8F698D7A8D8B8D9C8D33
:1019B00020E030E04AEF54E40E941F02DC01CB013A
:1019C0008D8B9E8BAF8BB88F6D897E898F89988D1B
:1019D00020E030E040E85FE30E94250488232CF4F7
:1019E00081E090E09C8B8B8B3FC06D897E898F89D5
:1019F000988D20E03FEF4FE757E40E94C50318168B
:101A00004CF5698D7A8D8B8D9C8D20E030E040E225
:101A100051E40E941F02DC01CB01BC01CD010E94F8
:101A20004900DC01CB019C8B8B8B0FC088EC90E0D4
:101A30009A8B898B89899A890197F1F79A8B898B7F
:101A40008B899C8901979C8B8B8B8B899C890097B8
:101A500069F714C06D897E898F89988D0E9449002D
:101A6000DC01CB019C8B8B8B8B899C89988B8F871E
:101A70008F8598890197F1F7988B8F87A5E3B0E060
:101A8000E5E3F0E080818F778C9380E090E0A0E048
:101A9000B0E48B879C87AD87BE876B857C858D8501
:101AA0009E8520E030E04AEF54E40E941F02DC01F2
:101AB000CB018F839887A987BA876F8178858985BD
:101AC0009A8520E030E040E85FE30E942504882307
:101AD0002CF481E090E09E838D833FC06F817885F8
:101AE00089859A8520E03FEF4FE757E40E94C503C0
:101AF00018164CF56B857C858D859E8520E030E041
:101B000040E251E40E941F02DC01CB01BC01CD0187
:101B10000E944900DC01CB019E838D830FC088ECBD
:101B200090E09C838B838B819C810197F1F79C8350
:101B30008B838D819E8101979E838D838D819E8174
:101B4000009769F714C06F81788589859A850E940E
:101B50004900DC01CB019E838D838D819E819A8318
:101B6000898389819A810197F1F79A838983CD5B73
:101B7000DF4F0FB6F894DEBF0FBECDBFCF91DF9120
:101B80000895DF93CF9300D0CDB7DEB79A838983D2
:101B90000AC0E981FA8180810E94480B89819A817B
:101BA00001969A838983E981FA818081882389F764
:101BB0000F900F90CF91DF910895DF93CF9300D0D6
:101BC000CDB7DEB79A8389830E94FB0D0AC0E981F5
:101BD000FA8180810E94480B89819A8101969A83BB
:101BE0008983E981FA818081882389F70F900F909A
:101BF000CF91DF910895DF93CF93CDB7DEB781E02A
:101C00000E94CF08CF91DF910895DF93CF93CDB796
:101C1000DEB780E40E94CF088EE00E94480B8EE081
:101C20000E94480B84E00E94480B8EE00E94480B03
:101C300085E10E94480B84E00E94480B8AE00E94E4
:101C4000480B8AE00E94480B80E00E94480B80E02D
:101C50000E94480B8AE00E94480B80E00E94480BDB
:101C600080E00E94480B81E10E94480B8EE00E94B8
:101C7000480B80E00E94480B8EE00E94480B81E1F7
:101C80000E94480B81E10E94480B8FE10E94480BA3
:101C90008BE10E94480B8BE10E94480B8FE10E9470
:101CA000480B80E00E94480B80E00E94480B80E0D7
:101CB0000E94480B8AE00E94480B85E10E94480B75
:101CC00081E10E94480B8EE00E94480B84E00E9454
:101CD000480B80E00E94480B80E00E94480B80E0A7
:101CE0000E94480B80E00E94480B81E00E94480B54
:101CF00081E00E94480B81E00E94480B8FE10E9426
:101D0000480B80E00E94480B80E00E94480B80E076
:101D10000E94480B80E00E94480B80E00E94480B24
:101D200080E00E94480B8EE00E94480B81E10E94F7
:101D3000480B8EE00E94480B80E00E94480B80E038
:101D40000E94480B80E00E94480B80E00E94480BF4
:101D50008EE00E94480B81E00E94480B8FE10E94B8
:101D6000480B80E00E94480B86E00E94480B84E00C
:101D70000E94480B8EE00E94480B80E00E94480BB6
:101D800084E00E94480B84E00E94480B84E00E949B
:101D9000480B84E00E94480BCF91DF910895DF93B8
:101DA000CF9300D0CDB7DEB789836A83898188233A
:101DB00029F48A8180680E94CF0807C08981813018
:101DC00021F48A81806C0E94CF080F900F90CF91F0
:101DD000DF9108951F920F920FB60F9211242F9347
:101DE0008F939F93EF93FF93DF93CF930F92CDB792
:101DF000DEB7EFE5F0E080818983F89480912002DE
:101E0000882F90E0ECE2F0E02081FC01ED54FD4FE2
:101E10002083809120028F5F809320028091200296
:101E2000843611F410922002EFE5F0E0898180837E
:101E30000F90CF91DF91FF91EF919F918F912F9113
:101E40000F900FBE0F901F901895DF93CF93CDB7D3
:101E5000DEB76C970FB6F894DEBF0FBECDBF0E9401
:101E60001707789480E090E0AAE7B4E4898F9A8F0E
:101E7000AB8FBC8F698D7A8D8B8D9C8D20E030E08F
:101E80004AEF54E40E941F02DC01CB018D8B9E8B34
:101E9000AF8BB88F6D897E898F89988D20E030E077
:101EA00040E85FE30E94250488232CF481E090E061
:101EB0009C8B8B8B3FC06D897E898F89988D20E0AC
:101EC0003FEF4FE757E40E94C50318164CF5698DA4
:101ED0007A8D8B8D9C8D20E030E040E251E40E94B1
:101EE0001F02DC01CB01BC01CD010E944900DC01D5
:101EF000CB019C8B8B8B0FC088EC90E09A8B898BED
:101F000089899A890197F1F79A8B898B8B899C89AA
:101F100001979C8B8B8B8B899C89009769F714C0E8
:101F20006D897E898F89988D0E944900DC01CB01E3
:101F30009C8B8B8B8B899C89988B8F878F859889BD
:101F40000197F1F7988B8F870E946B1080E690E0E5
:101F50000E945C0780E090E8ABE3B5E48B879C8748
:101F6000AD87BE876B857C858D859E8520E030E0C2
:101F70004AEF54E40E941F02DC01CB018F83988753
:101F8000A987BA876F81788589859A8520E030E0B6
:101F900040E85FE30E94250488232CF481E090E070
:101FA0009E838D833FC06F81788589859A8520E0E7
:101FB0003FEF4FE757E40E94C50318164CF56B85B9
:101FC0007C858D859E8520E030E040E251E40E94D2
:101FD0001F02DC01CB01BC01CD010E944900DC01E4
:101FE000CB019E838D830FC088EC90E09C838B8314
:101FF0008B819C810197F1F79C838B838D819E81DE
:1020000001979E838D838D819E81009769F714C00F
:102010006F81788589859A850E944900DC01CB0112
:102020009E838D838D819E819A83898389819A8104
:102030000197F1F79A8389836C960FB6F894DEBF07
:102040000FBECDBFCF91DF910895DF93CF9300D026
:1020500000D0CDB7DEB79B838A8319828A819B81AA
:102060000E942C1A89838981482F50E083EB92E0EB
:102070002A813B81B9010E94351A009729F40E94F8
:102080006B1081E08C8301C01C828C810F900F90BB
:102090000F900F90CF91DF910895DF93CF9300D0F1
:1020A0000F92CDB7DEB79A83898383EB92E02981C3
:1020B0003A81B9010E94431A009729F00E946B10DF
:1020C00081E08B8301C01B828B810F900F900F905A
:1020D000CF91DF910895DF93CF93CDB7DEB7109204
:1020E000200283EB92E060E070E044E650E00E9462
:1020F000251ACF91DF910895DF93CF9300D0CDB70C
:10210000DEB79A8389831092170389819A8160E0F0
:1021100070E044E650E00E94251A0F900F90CF9196
:10212000DF910895DF93CF93CDB7DEB727970FB632
:10213000F894DEBF0FBECDBF9D838C837F836E83FB
:102140001B821A8219828E819F8160E070E049E0D3
:1021500050E00E94251A8E819F81099660E070E010
:102160004FE050E00E94251A8E819F81489660E0E2
:1021700070E04FE050E00E94251A9DC08B81282F0F
:1021800030E08C819D81FC01E20FF31F80818C3255
:1021900009F08EC089818F5F89838981813081F5C3
:1021A0001A822BC08A81482F50E08B818F5F8B83EE
:1021B0008B81282F30E08C819D81FC01E20FF31F81
:1021C00020818E819F81FC01E40FF51F20838A818D
:1021D000813019F08A81843069F48A818F5F8A8323
:1021E0008A81282F30E08E819F81FC01E20FF31F4E
:1021F0008AE380838A818F5F8A838A81883090F224
:102200008981823049F51A8224C08B818F5F8B834C
:102210008B81282F30E08C819D81FC01E20FF31F20
:1022200080818C32C9F08A81482F50E08B81282F21
:1022300030E08C819D81FC01E20FF31F20818E81B3
:102240009F81840F951FFC01399620838A818F5FBF
:102250008A838A818E30C8F28981833049F51A8257
:1022600024C08B818F5F8B838B81282F30E08C8102
:102270009D81FC01E20FF31F80818C32C9F08A81BD
:10228000482F50E08B81282F30E08C819D81FC010C
:10229000E20FF31F20818E819F81840F951FFC0127
:1022A000789620838A818F5F8A838A818E30C8F2F4
:1022B0008B818F5F8B838B81282F30E08C819D8178
:1022C000FC01E20FF31F8081882309F057CF80E0E3
:1022D00027960FB6F894DEBF0FBECDBFCF91DF912A
:1022E0000895DF93CF9300D000D000D0CDB7DEB7F4
:1022F0009C838B837E836D831A828D819E8160E0B7
:1023000070E049E050E00E94251AEB81FC81808159
:10231000805389838981882F90E09C01220F331F8D
:10232000C901880F991F880F991F820F931F8983F6
:10233000EB81FC8191818981890F80538983898117
:10234000863111F4198209C08981873119F481E03D
:10235000898303C089818E5F898389819AE0692F8F
:102360000E94AB18805DED81FE81808389819AE0B7
:10237000692F0E94AB18892F805DED81FE818183DA
:1023800082E08A8317C08A81482F50E08A81282FF3
:1023900030E08B819C81FC01E20FF31F80818983F7
:1023A0008D819E81FC01E40FF51F898180838A81E4
:1023B0008F5F8A838A81883030F381E026960FB65A
:1023C000F894DEBF0FBECDBFCF91DF910895DF93AC
:1023D000CF93CDB7DEB7AA970FB6F894DEBF0FBE86
:1023E000CDBF98A78FA37AA769A71B861A861986DF
:1023F0008AE0FE013E96DF01982F1D929A95E9F73B
:102400008FE0FE017896DF01982F1D929A95E9F7EB
:102410001D821E821F82188680E090E0A0E0B0E05E
:1024200089839A83AB83BC8389A59AA5099660E0CA
:1024300070E04FE050E00E94251A1B861A8628C0E3
:102440008B85282F30E08FA198A5820F931FFC0168
:10245000399680818E3219F48B858F5F8B878A85C0
:10246000482F50E08B85282F30E08FA198A5820F50
:10247000931FFC0139962081CE010E96FC01E40FDA
:10248000F51F20838B858F5F8B878A858F5F8A8777
:102490008B85282F30E08FA198A5820F931FFC0118
:1024A00039968081882361F68E8580538987898556
:1024B000882F90E09C01220F331FC901880F991FBC
:1024C000880F991F820F931F89879F858985890FA0
:1024D00080538987CE010E9602969E01245F3F4F5E
:1024E000B9014AE050E00E94EE18DC01CB018D8377
:1024F0009E83AF83B8876D817E818F8198850E948E
:10250000A904DC01CB01BC01CD0120E03CE742E1A4
:1025100059E40E941903DC01CB0189839A83AB83C0
:10252000BC838985882F90E0A0E0B0E0BC01CD019C
:102530000E94A9049B01AC0169817A818B819C81F5
:102540000E94F201DC01CB0189839A83AB83BC83B7
:1025500069817A818B819C8120E034E244E759E4EF
:102560000E941F02DC01CB0189839A83AB83BC8369
:1025700069817A818B819C810E944900DC01CB01B9
:102580009E01285E3F4FBC01CD01A9012AE030E049
:102590000E947E1A1A861B862AC08A85482F50E020
:1025A0008B85282F30E0CE014896FC01E20FF31F07
:1025B000208189A59AA5840F951FFC013996208357
:1025C0008A85813071F48A858F5F8A878A85282F72
:1025D00030E089A59AA5820F931FFC0139968EE2FF
:1025E00080838A858F5F8A878B858F5F8B878B85BA
:1025F000282F30E0CE014896FC01E20FF31F8081C6
:10260000882359F681E0AA960FB6F894DEBF0FBE74
:10261000CDBFCF91DF910895DF93CF93CDB7DEB7D4
:10262000AA970FB6F894DEBF0FBECDBF98A78FA3B1
:102630007AA769A71B861A8619868AE0FE013E964C
:10264000DF01982F1D929A95E9F78FE0FE017896A9
:10265000DF01982F1D929A95E9F71D821E821F8235
:10266000188680E090E0A0E0B0E089839A83AB8395
:10267000BC8389A59AA5489660E070E04FE050E0E1
:102680000E94251A1B861A8628C08B85282F30E0C9
:102690008FA198A5820F931FFC01789680818E32BE
:1026A00019F48B858F5F8B878A85482F50E08B8547
:1026B000282F30E08FA198A5820F931FFC017896F8
:1026C0002081CE010E96FC01E40FF51F20838B853F
:1026D0008F5F8B878A858F5F8A878B85282F30E075
:1026E0008FA198A5820F931FFC0178968081882383
:1026F00061F68F85805389878985882F90E09C01BA
:10270000220F331FC901880F991F880F991F820F4D
:10271000931F898798898985890F80538987CE017E
:102720000E9603969E01245F3F4FB9014AE050E0A8
:102730000E94EE18DC01CB018D839E83AF83B887A6
:102740006D817E818F8198850E94A904DC01CB0177
:10275000BC01CD0120E03CE742E159E40E941903AD
:10276000DC01CB0189839A83AB83BC838985882F65
:1027700090E0A0E0B0E0BC01CD010E94A9049B0163
:10278000AC0169817A818B819C810E94F201DC011C
:10279000CB0189839A83AB83BC8369817A818B81E6
:1027A0009C8120E034E244E759E40E941F02DC01EE
:1027B000CB0189839A83AB83BC8369817A818B81C6
:1027C0009C810E944900DC01CB019E01285E3F4FA5
:1027D000BC01CD01A9012AE030E00E947E1A1A86D0
:1027E0001B862AC08A85482F50E08B85282F30E031
:1027F000CE014896FC01E20FF31F208189A59AA51E
:10280000840F951FFC01789620838A85813071F4AE
:102810008A858F5F8A878A85282F30E089A59AA5C7
:10282000820F931FFC0178968EE280838A858F5FEA
:102830008A878B858F5F8B878B85282F30E0CE0131
:102840004896FC01E20FF31F8081882359F681E04E
:10285000AA960FB6F894DEBF0FBECDBFCF91DF9121
:102860000895DF93CF93CDB7DEB7C758D0400FB6EA
:10287000F894DEBF0FBECDBF0E94AA0786E690E0A7
:102880000E94DD0D0E94BD170E94DC1778940E9403
:10289000250FA1E3B0E0E1E3F0E080818B7F8C9332
:1028A0008CE690E00E945C0780E090E8ABE3B5E442
:1028B0008DAB9EABAFABB8AF6DA97EA98FA998AD1C
:1028C00020E030E04AEF54E40E941F02DC01CB011B
:1028D00089AB9AABABABBCAB69A97AA98BA99CA914
:1028E00020E030E040E85FE30E94250488232CF4D8
:1028F00081E090E098AB8FA73FC069A97AA98BA926
:102900009CA920E03FEF4FE757E40E94C50318164B
:102910004CF56DA97EA98FA998AD20E030E040E28A
:1029200051E40E941F02DC01CB01BC01CD010E94D9
:102930004900DC01CB0198AB8FA70FC088EC90E079
:102940009EA78DA78DA59EA50197F1F79EA78DA7A0
:102950008FA598A9019798AB8FA78FA598A90097E5
:1029600069F714C069A97AA98BA99CA90E9449009A
:10297000DC01CB0198AB8FA78FA598A99CA78BA74B
:102980008BA59CA50197F1F79CA78BA782E790E008
:102990000E94DD0D0E9416188823C1F00E94EF17D7
:1029A00089AF20911703822F90E0FC01EF5DFD4F6E
:1029B00089AD8083822F8F5F8093170380911703E7
:1029C000843621F481E292E00E947C1081E292E060
:1029D00020E830E0B9010E94431A009721F081E21B
:1029E00092E00E947C1081E292E026E830E0B9019A
:1029F0000E94431A009721F181E292E09E01265C39
:102A00003F4FB9010E949210CE01CA969E012F59E4
:102A10003F4FB9010E947111CE01CA969E012F59F4
:102A20003F4FB9010E94E711CE01CA969E012F596E
:102A30003F4FB9010E940C1381E292E00E947C108A
:102A4000E0E3F0E08081882F90E084709070009740
:102A500009F4A0CF8CE890E00E94DD0D80E090E0CA
:102A6000A6E9B3E48FA398A7A9A7BAA76FA178A5F1
:102A700089A59AA520E030E04AEF54E40E941F02A5
:102A8000DC01CB018BA39CA3ADA3BEA36BA17CA156
:102A90008DA19EA120E030E040E85FE30E94250484
:102AA00088232CF481E090E09AA389A33FC06BA116
:102AB0007CA18DA19EA120E03FEF4FE757E40E944B
:102AC000C50318164CF56FA178A589A59AA520E035
:102AD00030E040E251E40E941F02DC01CB01BC0166
:102AE000CD010E944900DC01CB019AA389A30FC04C
:102AF00088EC90E098A38F8F8F8D98A10197F1F7C4
:102B000098A38F8F89A19AA101979AA389A389A1DC
:102B10009AA1009769F714C06BA17CA18DA19EA119
:102B20000E944900DC01CB019AA389A389A19AA143
:102B30009E8F8D8F8D8D9E8D0197F1F79E8F8D8F3E
:102B40008BE990E00E945C0780E090E0AAEFB4E49B
:102B5000898F9A8FAB8FBC8F698D7A8D8B8D9C8D71
:102B600020E030E04AEF54E40E941F02DC01CB0178
:102B70008D8B9E8BAF8BB88F6D897E898F89988D59
:102B800020E030E040E85FE30E94250488232CF435
:102B900081E090E09C8B8B8B3FC06D897E898F8913
:102BA000988D20E03FEF4FE757E40E94C5031816C9
:102BB0004CF5698D7A8D8B8D9C8D20E030E040E264
:102BC00051E40E941F02DC01CB01BC01CD010E9437
:102BD0004900DC01CB019C8B8B8B0FC088EC90E013
:102BE0009A8B898B89899A890197F1F79A8B898BBE
:102BF0008B899C8901979C8B8B8B8B899C890097F7
:102C000069F714C06D897E898F89988D0E9449006B
:102C1000DC01CB019C8B8B8B8B899C89988B8F875C
:102C20008F8598890197F1F7988B8F8786EA90E0D6
:102C30000E945C0780E090E0AAEFB4E48B879C8759
:102C4000AD87BE876B857C858D859E8520E030E0D5
:102C50004AEF54E40E941F02DC01CB018F83988766
:102C6000A987BA876F81788589859A8520E030E0C9
:102C700040E85FE30E94250488232CF481E090E083
:102C80009E838D833FC06F81788589859A8520E0FA
:102C90003FEF4FE757E40E94C50318164CF56B85CC
:102CA0007C858D859E8520E030E040E251E40E94E5
:102CB0001F02DC01CB01BC01CD010E944900DC01F7
:102CC000CB019E838D830FC088EC90E09C838B8327
:102CD0008B819C810197F1F79C838B838D819E81F1
:102CE00001979E838D838D819E81009769F714C023
:102CF0006F81788589859A850E944900DC01CB0126
:102D00009E838D838D819E819A83898389819A8117
:102D10000197F1F79A8389838DEB90E00E945C071D
:102D200086EE90E00E945C07CE018F599F4F099676
:102D30000E945C0789E091E00E945C07CE018F59F8
:102D40009F4F48960E945C078AE10E9436078BE0FD
:102D500091E00E94DD0D1ECE1F920F920FB60F92D2
:102D600011242F938F939F93AF93BF93EF93FF9370
:102D7000DF93CF9300D00F92CDB7DEB78091AE0234
:102D80008130D1F58091AF02898389818150898317
:102D90008981882371F58091B1029091B20281708E
:102DA0009070882341F0A8E3B0E0E8E3F0E0808190
:102DB00082608C9307C0A8E3B0E0E8E3F0E0808194
:102DC0008D7F8C938091B1029091B20296958795F8
:102DD0009093B2028093B10283E089838091B00224
:102DE00081508093B0028091B002882311F4109238
:102DF000AE0289818093AF028091AC02882309F0F2
:102E000072C080918902882329F1809187028150C4
:102E10008093870280918702882309F064C0109212
:102E200089021092AD028091AA02882F90E0209131
:102E30008502FC01E657FD4F20838091AA028F5F37
:102E40008093AA028091AA02803208F44CC01092AA
:102E5000AA0249C08091AD028823B9F4E6E3F0E00C
:102E6000808181708B838B818823E9F581E0809359
:102E7000AD021092850284E08093870288E08093FF
:102E8000860281E0809388022EC080918702898328
:102E90008981815089838981882311F583E0898321
:102EA000E6E3F0E0808181708A838A81882339F0AB
:102EB0008091850290918802892B80938502809170
:102EC0008802880F809388028091860281508093C7
:102ED000860280918602882319F481E0809389021A
:102EE0008981809387020F900F900F90CF91DF918F
:102EF000FF91EF91BF91AF919F918F912F910F9083
:102F00000FBE0F901F901895DF93CF93CDB7DEB70C
:102F1000A7E3B0E0E7E3F0E0808182608C93A7E371
:102F2000B0E0E7E3F0E080818E7F8C93CF91DF917A
:102F30000895DF93CF930F92CDB7DEB7EFE5F0E0C2
:102F400080818983F894ECE5F0E081E28083E3E519
:102F5000F0E08AE08083A9E5B0E0E9E5F0E0808177
:102F600082608C93E2E5F0E01082EFE5F0E0898189
:102F700080830F90CF91DF910895DF93CF93CDB7EA
:102F8000DEB71092AE021092AD021092AC02A8E32E
:102F9000B0E0E8E3F0E0808182608C930E948417C7
:102FA0000E949917CF91DF910895DF93CF93CDB70A
:102FB000DEB7CF91DF910895DF93CF93CDB7DEB722
:102FC0001092AC02CF91DF910895DF93CF93CDB7EC
:102FD000DEB781E08093AC02CF91DF910895DF935B
:102FE000CF930F92CDB7DEB702C00E94D517909154
:102FF000AB028091AA029817C1F38091AB02882F8F
:1030000090E0FC01E657FD4F808189838091AB02FF
:103010008F5F8093AB028091AB02803210F01092F0
:10302000AB0289810F90CF91DF910895DF93CF9309
:103030000F92CDB7DEB79091AA028091AB021982B0
:10304000981711F081E0898389810F90CF91DF91EA
:103050000895DF93CF93CDB7DEB71092AA021092F6
:10306000AB02CF91DF910895DF93CF930F92CDB74D
:10307000DEB78091AE021982813011F481E089833C
:1030800089810F90CF91DF910895DF93CF930F92B5
:10309000CDB7DEB789838091AE028130E1F383E062
:1030A0008093AF028AE08093B0028981882F90E0FC
:1030B000880F991F92609093B2028093B10281E0D1
:1030C0008093AE020F90CF91DF910895DF93CF935D
:1030D00000D0CDB7DEB79A8389830BC0E981FA812E
:1030E000208189819A8101969A838983822F0E9407
:1030F0004518E981FA818081882381F70F900F902C
:10310000CF91DF910895DF93CF9300D000D000D00E
:10311000CDB7DEB79E838D8303C08C810E94451896
:103120008D819E819B838A838D819E8101969E8362
:103130008D83EA81FB818491898389818C838C8151
:10314000882359F726960FB6F894DEBF0FBECDBF81
:10315000CF91DF910895991B79E004C0991F9617CC
:1031600008F0961B881F7A95C9F7809508952F92CD
:103170003F924F925F926F927F928F929F92AF9207
:10318000BF92CF92DF92EF92FF920F931F93CF9354
:10319000DF93CDB7DEB7CA1BDB0B0FB6F894DEBFEB
:1031A0000FBECDBF09942A88398848885F846E8411
:1031B0007D848C849B84AA84B984C884DF80EE805B
:1031C000FD800C811B81AA81B981CE0FD11D0FB664
:1031D000F894DEBF0FBECDBFED0108952F923F9250
:1031E0005F926F927F928F929F92AF92BF92CF9297
:1031F000DF92EF92FF920F931F93CF93DF938C0197
:103200001B01EA016115710519F0FB0191838083AF
:10321000209749F0CE010297839728F020E030E014
:1032200040E050E0F6C0F801A1908F018A2D90E0B7
:103230000E941D1A892BB9F7FDE2AF1631F4F8018F
:10324000A1908F015524539407C0FBE2AF1619F4E7
:10325000F801A1908F015524209719F0C031D105B4
:10326000C1F4F0E3AF1679F4F8018081883711F0EA
:10327000883549F4F801A1800E5F1F4FF2E05F2A04
:10328000C0E1D0E006C0209721F480E3A816E9F45D
:1032900027C0C830D10531F1C930D10524F4C2307E
:1032A000D10531F50CC0CA30D10589F0C031D10546
:1032B000F9F4C12CD12CE12CB8E0FB2E28C0C12C94
:1032C000D12CE12CA0E4FA2E22C0CAE0D0E0FCEC24
:1032D000CF2EFCECDF2EFCECEF2EFCE0FF2E17C017
:1032E000C8E0D0E0C12CD12CE12CE0E1FE2E0FC0D3
:1032F0009E01442737FD4095542F60E070E080E048
:1033000090E80E94E91AC901DA016C017D0120E010
:1033100030E040E050E060E03E01882477FC80949B
:10332000982C70EDB72EBA0CE9E0EB1570F48A2DED
:1033300081548A3118F499ECB92E06C08A2D815631
:103340008A3150F589EAB82EBA0C8B2D90E08C1793
:103350009D0714F56F3FE1F0C216D306E406F506AB
:10336000B0F0CA01B901A40193010E94B61A9B01F1
:10337000AC012B0D311D411D511D2130F0E03F07E7
:10338000F0E04F07F0E85F0710F461E001C06FEF75
:10339000F801A1908F01C5CF2114310481F066237B
:1033A00031F001501040F1011183008308C051FE3B
:1033B0001AC002501040F1011183008314C067FF4E
:1033C00012C050FC05C02FEF3FEF4FEF5FE704C086
:1033D00020E030E040E050E882E290E09093190372
:1033E0008093180316C050FE08C050954095309544
:1033F00021953F4F4F4F5F4F0CC057FF0AC082E2ED
:1034000090E090931903809318032FEF3FEF4FEF55
:103410005FE7B901CA01DF91CF911F910F91FF9032
:10342000EF90DF90CF90BF90AF909F908F907F9064
:103430006F905F903F902F900895911184C08032DB
:1034400019F089508550D0F70895DC0101C06D93C3
:1034500041505040E0F70895FC0101900020E9F749
:10346000809590958E0F9F1F0895FB01DC014150C0
:10347000504030F08D910190801919F40020B9F777
:10348000881B990B0895FB0151915523A9F0BF01A9
:10349000DC014D9145174111E1F759F4CD0101903F
:1034A000002049F04D9140154111C9F3FB01411134
:1034B000EFCF81E090E001970895FB019F01E89430
:1034C0004230C4F04532B4F44A3029F497FB1EF47C
:1034D000909581959F4F642F77270E94D51A805D24
:1034E0008A330CF0895D8193CB010097A1F716F424
:1034F0005DE251931082C9010C94A61AFA01CF9390
:10350000FF93EF932230CCF02532BCF4C22F2C2F46
:10351000332744275527FF93EF930E94E91AEF9131
:10352000FF91605D6A330CF0695D6193B901CA0176
:10353000605070408040904051F710828F919F9171
:10354000CF910C94A61A992788270895DC01FC01D5
:10355000672F71917723E1F7329704C07C916D93C7
:1035600070836291AE17BF07C8F30895629FD001C0
:10357000739FF001829FE00DF11D649FE00DF11D2E
:10358000929FF00D839FF00D749FF00D659FF00DDD
:103590009927729FB00DE11DF91F639FB00DE11DCA
:1035A000F91FBD01CF0111240895AA1BBB1B51E1D6
:1035B00007C0AA1FBB1FA617B70710F0A61BB70BA3
:1035C000881F991F5A95A9F780959095BC01CD0148
:1035D0000895A1E21A2EAA1BBB1BFD010DC0AA1F54
:1035E000BB1FEE1FFF1FA217B307E407F50720F06C
:1035F000A21BB30BE40BF50B661F771F881F991FE7
:103600001A9469F760957095809590959B01AC012F
:0A361000BD01CF010895F894FFCF2B
:10361A00415445310D00737461727400415445314F
:10362A000D0073746172742070726F6772616D003D
:10363A0047504747410047504753410062757474E9
:10364A006F6E20707265737365640041542B434D2D
:10365A0047463D310D0041542B434D47533D2230DF
:10366A0031313135393438383234220D0048616A03
:10367A006A206E756D6265722041303031206E6548
:10368A006564732068656C70206174206C6F636177
:10369A0074696F6E200068747470733A2F2F77778D
:1036AA00772E676F6F676C652E636F6D2F6D617014
:1036BA00732F706C6163652F002C00646F6E652038
:1036CA0073656E64696E6700000000000000000008
:1036DA0000010202030303030404040404040404AF
:1036EA000505050505050505050505050505050580
:1036FA000606060606060606060606060606060660
:10370A00060606060606060606060606060606064F
:10371A00070707070707070707070707070707072F
:10372A00070707070707070707070707070707071F
:10373A00070707070707070707070707070707070F
:10374A0007070707070707070707070707070707FF
:10375A0008080808080808080808080808080808DF
:10376A0008080808080808080808080808080808CF
:10377A0008080808080808080808080808080808BF
:10378A0008080808080808080808080808080808AF
:10379A00080808080808080808080808080808089F
:1037AA00080808080808080808080808080808088F
:1037BA00080808080808080808080808080808087F
:1037CA00080808080808080808080808080808086F
:00000001FF
