:100000000C942A000C9447000C9447000C94470071
:100010000C9447000C9447000C9447000C94470044
:100020000C9447000C9447000C9447000C94470034
:100030000C9447000C9436060C9447000C9447002F
:100040000C9447000C9447000C9447000C94470014
:100050000C94470011241FBECFE5D8E0DEBFCDBF12
:1000600010E0A0E6B0E0E8E1F5E102C005900D92F5
:10007000AC3CB107D9F711E0ACECB0E001C01D9287
:10008000A133B107E1F70E9471060C948A0A0C941F
:100090000000EF92FF920F931F937B018C0120E0F1
:1000A00030E040E05FE40E94490388238CF0C801FF
:1000B000B70120E030E040E05FE40E94C1010E940F
:1000C000A9039B01AC01205030404040504806C07D
:1000D000C801B7010E94A9039B01AC01B901CA0183
:1000E0001F910F91FF90EF900895A0E0B0E0EBE733
:1000F000F0E00C94D609DC012B01FA019C919230BE
:1001000008F439C1EB018881823008F433C194309E
:1001100069F4843009F02FC111969C91119789815F
:10012000981709F428C1A3ECB0E025C1843009F484
:1001300021C18230A9F4923009F01DC19A01AD01AC
:1001400088E0EA010990AE01E90109929E0181501F
:10015000C1F7E201898111969C918923818308C1AD
:10016000923009F407C112962D903C901397EB0141
:100170008A819B811496AD90BD90CD90DC901797AD
:10018000EC80FD800E811F819101281B390BB90184
:1001900037FF04C066277727621B730B6032710537
:1001A0000CF061C0121613066CF537014801062EDB
:1001B00004C096948794779467940A94D2F721E0C8
:1001C00030E040E050E004C0220F331F441F551FB1
:1001D0006A95D2F721503040404050402E213F21B7
:1001E00040235123211531054105510521F021E01E
:1001F00030E040E050E079018A01E628F72808293C
:1002000019293CC0232BD1F1260E371E350146019A
:10021000062E04C096948794779467940A94D2F734
:1002200021E030E040E050E004C0220F331F441FC3
:10023000551F6A95D2F721503040404050402A2146
:100240003B214C215D21211531054105510521F04E
:1002500021E030E040E050E059016A01A628B728CB
:10026000C828D9280BC0821593052CF01C01AA249C
:10027000BB24650103C0EE24FF24870111969C91E5
:10028000D20111968C91981709F445C0992339F041
:10029000A80197012A193B094C095D0906C0A6016E
:1002A00095012E193F09400B510B57FD08C01182D3
:1002B0003382228224833583468357831DC081E0A5
:1002C00081833382228288279927DC01821B930B4A
:1002D000A40BB50B84839583A683B7830DC0220F2F
:1002E000331F441F551F24833583468357838281E0
:1002F000938101979383828324813581468157813D
:10030000DA01C9010197A109B1098F5F9F4FAF4F72
:10031000BF4328F30BC0918333822282EA0CFB1C7B
:100320000C1D1D1DE482F5820683178383E0808304
:10033000248135814681578157FF1AC0C901AA27F8
:1003400097FDA095BA2F81709070A070B0705695EF
:10035000479537952795822B932BA42BB52B848318
:100360009583A683B7838281938101969383828349
:10037000DF0101C0D201CD01CDB7DEB7E2E10C94BF
:10038000F209A0E2B0E0E7ECF1E00C94E209698345
:100390007A838B839C832D833E834F835887E9E048
:1003A000EE2EF12CEC0EFD1ECE010196B7010E943F
:1003B000D2048E010F5E1F4FCE010596B8010E9438
:1003C000D2048A8991E089278A8BC701B801AE01DE
:1003D000475E5F4F0E9475000E94FD03A096E6E015
:1003E0000C94FE09A0E2B0E0E8EFF1E00C94E20921
:1003F00069837A838B839C832D833E834F835887C5
:10040000F9E0EF2EF12CEC0EFD1ECE010196B701A6
:100410000E94D2048E010F5E1F4FCE010596B801D7
:100420000E94D204C701B801AE01475E5F4F0E942F
:1004300075000E94FD03A096E6E00C94FE09A0E280
:10044000B0E0E5E2F2E00C94D60969837A838B830D
:100450009C832D833E834F835887CE010196BE0136
:10046000675F7F4F0E94D204CE010596BE016F5E8A
:100470007F4F0E94D2049985923088F0898982301A
:10048000C8F0943019F4823051F404C0843029F457
:10049000923081F483EC90E0C6C0923049F420E0C1
:1004A0009A858A89981321E02A87CE010996BBC0D4
:1004B000823049F420E09A858A89981321E02A8BBA
:1004C000CE014196B0C02D843E844F8458886D88FB
:1004D0007E888F88988CEE24FF248701AA24BB2471
:1004E000650140E050E060E070E0E0E0F0E0C10174
:1004F00081709070892BE9F0E60CF71C081D191D1E
:100500009A01AB012A0D3B1D4C1D5D1D80E090E062
:10051000A0E0B0E0E614F7040805190520F481E036
:1005200090E0A0E0B0E0BA01A901480F591F6A1F8E
:100530007B1FAA0CBB1CCC1CDD1C97FE08C081E0F5
:1005400090E0A0E0B0E0A82AB92ACA2ADB2A3196B6
:10055000E032F10549F0660C771C881C991C569412
:10056000479437942794C3CFFA85EA892B893C892D
:100570008B859C85280F391F2E5F3F4F17C0CA01FE
:1005800081709070892B61F016950795F794E79428
:1005900080E090E0A0E0B0E8E82AF92A0A2B1B2BC3
:1005A00076956795579547952F5F3F4F77FDE7CF36
:1005B0000CC0440F551F661F771F17FD4160EE0CDE
:1005C000FF1C001F111F21503040403090E05907A0
:1005D00090E0690790E4790760F32B8F3C8FDB0193
:1005E000CA018F779070A070B07080349105A1051A
:1005F000B10561F447FD0AC0E114F10401051105DC
:1006000029F0405C5F4F6F4F7F4F40781A8EFE1786
:1006100011F081E08A8F4D8F5E8F6F8F78A383E01A
:10062000898FCE0149960E94FD03A096E2E10C94C9
:10063000F209A8E1B0E0EFE1F3E00C94E20969838C
:100640007A838B839C832D833E834F83588789E0F5
:10065000E82EF12CEC0EFD1ECE010196B7010E9492
:10066000D2048E010F5E1F4FCE010596B8010E9485
:10067000D2048985823040F08989823028F0C70110
:10068000B8010E944A0501C08FEF6896E6E00C941D
:10069000FE09A8E1B0E0EFE4F3E00C94E20969831D
:1006A0007A838B839C832D833E834F83588789E095
:1006B000E82EF12CEC0EFD1ECE010196B7010E9432
:1006C000D2048E010F5E1F4FCE010596B8010E9425
:1006D000D2048985823040F08989823028F0C701B0
:1006E000B8010E944A0501C08FEF6896E6E00C94BD
:1006F000FE09A8E1B0E0EFE7F3E00C94E2096983BA
:100700007A838B839C832D833E834F83588789E034
:10071000E82EF12CEC0EFD1ECE010196B7010E94D1
:10072000D2048E010F5E1F4FCE010596B8010E94C4
:10073000D2048985823040F08989823028F0C7014F
:10074000B8010E944A0501C081E06896E6E00C9479
:10075000FE09ACE0B0E0EFEAF3E00C94E60969834F
:100760007A838B839C83CE010196BE016B5F7F4FA2
:100770000E94D2048D81823061F1823050F1843048
:1007800021F48E81882351F12EC02F81388537FDC9
:1007900020C06E812F3131051CF06623F9F023C093
:1007A0008EE190E0821B930B29853A854B855C8511
:1007B00004C056954795379527958A95D2F76623B5
:1007C000B1F050954095309521953F4F4F4F5F4F79
:1007D0000EC020E030E040E050E009C02FEF3FEFD6
:1007E0004FEF5FE704C020E030E040E050E8B9019F
:1007F000CA012C96E2E00C94020ADF92EF92FF927B
:100800000F931F93FC01E480F58006811781D1804E
:100810008081823048F480E090E0A0E1B0E0E82AF6
:10082000F92A0A2B1B2BA5C0843009F49FC0823003
:1008300021F4EE24FF24870105C0E114F104010531
:10084000110519F4E0E0F0E096C0628173819FEF3A
:10085000623879070CF05BC022E83FEF261B370BAC
:100860002A3131052CF020E030E040E050E02AC091
:10087000B801A701022E04C0769567955795479554
:100880000A94D2F781E090E0A0E0B0E004C0880FC5
:10089000991FAA1FBB1F2A95D2F70197A109B10979
:1008A0008E219F21A023B1230097A105B10521F03E
:1008B00081E090E0A0E0B0E09A01AB01282B392B59
:1008C0004A2B5B2BDA01C9018F779070A070B07052
:1008D00080349105A105B10539F427FF09C0205CDA
:1008E0003F4F4F4F5F4F04C0215C3F4F4F4F5F4F13
:1008F000E0E0F0E02030A0E03A07A0E04A07A0E402
:100900005A0710F0E1E0F0E079018A0127C0603871
:10091000710564F5FB01E158FF4FD801C7018F77DE
:100920009070A070B07080349105A105B10539F4C4
:10093000E7FE0DC080E490E0A0E0B0E004C08FE3EB
:1009400090E0A0E0B0E0E80EF91E0A1F1B1F17FFA1
:1009500005C016950795F794E794319687E01695AC
:100960000795F794E7948A95D1F705C0EE24FF2404
:100970008701EFEFF0E06E2F679566276795902F60
:100980009F77D794DD24D7948E2F8695492F462BB9
:10099000582F5D29B701CA011F910F91FF90EF9069
:1009A000DF900895FC01DB01408151812281622F9B
:1009B0006F7770E0221F2227221F9381892F880FD3
:1009C000822B282F30E0991F9927991F11969C930D
:1009D000119721153105A9F54115510561057105DD
:1009E00011F482E037C082E89FEF13969C938E93B8
:1009F00012979A01AB0167E0220F331F441F551F66
:100A00006A95D1F783E08C930DC0220F331F441FEA
:100A1000551F12968D919C911397019713969C9355
:100A20008E931297203080E0380780E0480780E4FA
:100A3000580758F314962D933D934D935C93179755
:100A400008952F3F310579F4411551056105710570
:100A500019F484E08C93089564FF03C081E08C93C3
:100A600012C01C9210C02F57304013963C932E9307
:100A7000129783E08C9387E0440F551F661F771F02
:100A80008A95D1F7706414964D935D936D937C9322
:100A9000179708951F93DC01FB019C91923008F495
:100AA00047C08081823008F443C0943051F41196DD
:100AB0001C91843099F58181682F70E0611B710968
:100AC0003FC0843021F0923031F48230B9F181811D
:100AD000882389F12DC011961C9111978230F1F075
:100AE00081811817D9F412962D913C911397828128
:100AF00093818217930794F028173907BCF0149656
:100B00008D919D910D90BC91A02D248135814681C0
:100B10005781281739074A075B0718F4112341F05A
:100B20000AC082179307A407B50740F4112319F0F0
:100B300061E070E005C06FEF7FEF02C060E070E041
:100B4000CB011F910895DF93CF9300D0CDB7DEB7CF
:100B50001A821982EBE2F0E082E08083EAE2F0E0C0
:100B600088E98083E0E4F0E086E88083E9E2F0E071
:100B700087E68083E0E4F0E010820F900F90CF9141
:100B8000DF910895DF93CF930F92CDB7DEB78983BE
:100B9000EBE2F0E08081882F90E080729070009707
:100BA000B9F3ECE2F0E0898180830F90CF91DF917F
:100BB0000895DF93CF93CDB7DEB7EBE2F0E080810D
:100BC0008823DCF7ECE2F0E08081CF91DF9108959B
:100BD000DF93CF9300D000D0CDB7DEB79C838B835B
:100BE0001A8219820FC029813A818B819C81FC0174
:100BF000E20FF31F80810E94C20589819A810196CC
:100C00009A83898329813A818B819C81FC01E20F3F
:100C1000F31F8081882339F70F900F900F900F906A
:100C2000CF91DF910895DF93CF93CDB7DEB766976D
:100C30000FB6F894DEBF0FBECDBF9E8B8D8B8D8916
:100C40009E899E012F5F3F4FB9014AE050E00E940C
:100C5000450ACE0101960E94E80566960FB6F89403
:100C6000DEBF0FBECDBFCF91DF9108951F920F92CF
:100C70000FB60F9211242F938F939F93EF93FF93AF
:100C8000DF93CF930F92CDB7DEB7EFE5F0E0808131
:100C90008983F8948091CC00882F90E0ECE2F0E01A
:100CA0002081FC01E353FF4F20838091CC008F5FB4
:100CB0008093CC008091CC00843611F41092CC004B
:100CC000EFE5F0E0898180830F90CF91DF91FF9174
:100CD000EF919F918F912F910F900FBE0F901F90CA
:100CE0001895DF93CF93CDB7DEB7E8970FB6F8949A
:100CF000DEBF0FBECDBF0E94D608A1E3B0E0E1E3A6
:100D0000F0E0808184688C93A2E3B0E0E2E3F0E05D
:100D100080818F778C93E0E3F0E08081882F90E0F2
:100D200084709070009781F3A2E3B0E0E2E3F0E01A
:100D3000808180688C9380E090E0A6E9B3E48DAB7D
:100D40009EABAFABB8AF6DA97EA98FA998AD20E0DF
:100D500030E04AEF54E40E941F02DC01CB0189AB72
:100D60009AABABABBCAB69A97AA98BA99CA920E0D3
:100D700030E040E85FE30E94790388232CF481E0AF
:100D800090E098AB8FA73FC069A97AA98BA99CA9CD
:100D900020E03FEF4FE757E40E94190318164CF587
:100DA0006DA97EA98FA998AD20E030E040E251E422
:100DB0000E941F02DC01CB01BC01CD010E94490051
:100DC000DC01CB0198AB8FA70FC088EC90E09EA709
:100DD0008DA78DA59EA50197F1F79EA78DA78FA53D
:100DE00098A9019798AB8FA78FA598A9009769F745
:100DF00014C069A97AA98BA99CA90E944900DC01A9
:100E0000CB0198AB8FA78FA598A99CA78BA78BA583
:100E10009CA50197F1F79CA78BA780E690E00E9424
:100E2000E80580E090E0AAE7B4E48FA398A7A9A71B
:100E3000BAA76FA178A589A59AA520E030E04AEF6E
:100E400054E40E941F02DC01CB018BA39CA3ADA341
:100E5000BEA36BA17CA18DA19EA120E030E040E863
:100E60005FE30E94790388232CF481E090E09AA349
:100E700089A33FC06BA17CA18DA19EA120E03FEF83
:100E80004FE757E40E94190318164CF56FA178A597
:100E900089A59AA520E030E040E251E40E941F02BB
:100EA000DC01CB01BC01CD010E944900DC01CB017A
:100EB0009AA389A30FC088EC90E098A38F8F8F8DA1
:100EC00098A10197F1F798A38F8F89A19AA1019713
:100ED0009AA389A389A19AA1009769F714C06BA16D
:100EE0007CA18DA19EA10E944900DC01CB019AA3A7
:100EF00089A389A19AA19E8F8D8F8D8D9E8D01973B
:100F0000F1F79E8F8D8F8BE690E00E94E80580E0E0
:100F100090E0AAE7B4E4898F9A8FAB8FBC8F698D7C
:100F20007A8D8B8D9C8D20E030E04AEF54E40E9456
:100F30001F02DC01CB018D8B9E8BAF8BB88F6D892F
:100F40007E898F89988D20E030E040E85FE30E9441
:100F5000790388232CF481E090E09C8B8B8B3FC03D
:100F60006D897E898F89988D20E03FEF4FE757E4A8
:100F70000E94190318164CF5698D7A8D8B8D9C8D06
:100F800020E030E040E251E40E941F02DC01CB018E
:100F9000BC01CD010E944900DC01CB019C8B8B8BF5
:100FA0000FC088EC90E09A8B898B89899A89019788
:100FB000F1F79A8B898B8B899C8901979C8B8B8B02
:100FC0008B899C89009769F714C06D897E898F8908
:100FD000988D0E944900DC01CB019C8B8B8B8B8907
:100FE0009C89988B8F878F8598890197F1F7988BCB
:100FF0008F8782E890E00E94E80585EA90E00E94F1
:10100000E80580EB90E00E94E80582EB90E00E940A
:10101000E8058AE10E94C20580E090E8ABE3B5E410
:101020008B879C87AD87BE876B857C858D859E85EC
:1010300020E030E04AEF54E40E941F02DC01CB01C3
:101040008F839887A987BA876F81788589859A85E4
:1010500020E030E040E85FE30E94790388232CF42D
:1010600081E090E09E838D833FC06F817885898584
:101070009A8520E03FEF4FE757E40E9419031816C6
:101080004CF56B857C858D859E8520E030E040E2C7
:1010900051E40E941F02DC01CB01BC01CD010E9482
:1010A0004900DC01CB019E838D830FC088EC90E06A
:1010B0009C838B838B819C810197F1F79C838B832D
:1010C0008D819E8101979E838D838D819E81009766
:1010D00069F71ACE6F81788589859A850E944900C3
:1010E000DC01CB019E838D838D819E819A838983D0
:1010F00089819A810197F1F79A83898305CEDF93DD
:10110000CF9300D000D0CDB7DEB79B838A831982FE
:101110008A819B810E94140A89838981482F50E02B
:101120008DEC90E02A813B81B9010E941D0A009755
:1011300029F40E94C50881E08C8301C01C828C8147
:101140000F900F900F900F90CF91DF910895DF9344
:10115000CF9300D00F92CDB7DEB79A8389838DEC01
:1011600090E029813A81B9010E942B0A009729F069
:101170000E94C50881E08B8301C01B828B810F9088
:101180000F900F90CF91DF910895DF93CF93CDB75C
:10119000DEB71092CC008DEC90E060E070E044E6A9
:1011A00050E00E940D0ACF91DF910895DF93CF9315
:1011B000CDB7DEB76C970FB6F894DEBF0FBECDBFCC
:1011C0000E94A305789480E090E0AAE7B4E4898FB8
:1011D0009A8FAB8FBC8F698D7A8D8B8D9C8D20E023
:1011E00030E04AEF54E40E941F02DC01CB018D8BFA
:1011F0009E8BAF8BB88F6D897E898F89988D20E00B
:1012000030E040E85FE30E94790388232CF481E01A
:1012100090E09C8B8B8B3FC06D897E898F89988DE8
:1012200020E03FEF4FE757E40E94190318164CF5F2
:10123000698D7A8D8B8D9C8D20E030E040E251E409
:101240000E941F02DC01CB01BC01CD010E944900BC
:10125000DC01CB019C8B8B8B0FC088EC90E09A8BD0
:10126000898B89899A890197F1F79A8B898B8B8968
:101270009C8901979C8B8B8B8B899C89009769F744
:1012800014C06D897E898F89988D0E944900DC0188
:10129000CB019C8B8B8B8B899C89988B8F878F85BF
:1012A00098890197F1F7988B8F870E94C5088DEB7D
:1012B00090E00E94E80580E090E8ABE3B5E48B871E
:1012C0009C87AD87BE876B857C858D859E8520E05C
:1012D00030E04AEF54E40E941F02DC01CB018F830F
:1012E0009887A987BA876F81788589859A8520E054
:1012F00030E040E85FE30E94790388232CF481E02A
:1013000090E09E838D833FC06F81788589859A8523
:1013100020E03FEF4FE757E40E94190318164CF501
:101320006B857C858D859E8520E030E040E251E430
:101330000E941F02DC01CB01BC01CD010E944900CB
:10134000DC01CB019E838D830FC088EC90E09C83F1
:101350008B838B819C810197F1F79C838B838D819B
:101360009E8101979E838D838D819E81009769F771
:1013700014C06F81788589859A850E944900DC01B7
:10138000CB019E838D838D819E819A838983898100
:101390009A810197F1F79A8389836C960FB6F89436
:1013A000DEBF0FBECDBFCF91DF9108952F923F9248
:1013B0004F925F926F927F928F929F92AF92BF9265
:1013C000CF92DF92EF92FF920F931F93CF93DF9311
:1013D000CDB7DEB7CA1BDB0B0FB6F894DEBF0FBE6E
:1013E000CDBF09942A88398848885F846E847D84BB
:1013F0008C849B84AA84B984C884DF80EE80FD80BD
:101400000C811B81AA81B981CE0FD11D0FB6F89432
:10141000DEBF0FBECDBFED010895DC0101C06D93AD
:1014200041505040E0F70895FC0101900020E9F799
:10143000809590958E0F9F1F0895FB01DC01415010
:10144000504030F08D910190801919F40020B9F7C7
:10145000881B990B0895FB0151915523A9F0BF01F9
:10146000DC014D9145174111E1F759F4CD0101908F
:10147000002049F04D9140154111C9F3FB01411184
:10148000EFCF81E090E001970895FB019F01E89480
:101490004230C4F04532B4F44A3029F497FB1EF4CC
:1014A000909581959F4F642F77270E94760A805DE3
:1014B0008A330CF0895D8193CB010097A1F716F474
:1014C0005DE251931082C9010C94660ADC01FC01B3
:1014D000672F71917723E1F7329704C07C916D9368
:1014E00070836291AE17BF07C8F30895AA1BBB1B98
:1014F00051E107C0AA1FBB1FA617B70710F0A61B14
:10150000B70B881F991F5A95A9F780959095BC0134
:08151000CD010895F894FFCF0E
:1015180041542B434D47463D310D0041542B434D1B
:1015280047533D223031313135393438383234225D
:101538000D0068747470733A2F2F7777772E676F62
:101548006F676C652E636F6D2F6D6170732F706C94
:101558006163652F0033302E303131303634370037
:101568002C0033312E32303637393336004154456A
:0C157800310D0000000000000000000029
:00000001FF
